:020000040800F2
:1000000098160020E9010008F922000815200008D0
:10001000F5220008AD180008ED3A000800000000C5
:100020000000000000000000000000006D25000836
:100030000B1B000800000000DD23000881260008DB
:10004000030200080302000803020008030200087C
:1000500003020008030200080D1B00080302000849
:100060000302000803020008251B00080302000821
:10007000030200080302000803020008030200084C
:1000800003020008E1180008030200080302000848
:10009000030200080302000803020008711B0008A5
:1000A00003020008092700080302000803020008F1
:1000B0000302000895270008030200080302000855
:1000C00003020008030200080302000803020008FC
:1000D00003020008A1300008C931000841380008B7
:1000E00003020008030200080302000800F002F8FF
:1000F00000F06AF80AA090E8000C82448344AAF158
:100100000107DA4501D100F05FF8AFF2090EBAE855
:100110000F0013F0010F18BFFB1A43F0010318473B
:1001200050630000706300000A444FF0000C10F8A8
:10013000013B13F0070408BF10F8014B1D1108BF65
:1001400010F8015B641E05D010F8016B641E01F805
:10015000016BF9D113F0080F1EBF10F8014BAD1C55
:100160000C1B09D16D1E58BF01F801CBFAD505E073
:1001700014F8016B01F8016B6D1EF9D59142D6D3CD
:10018000704700000023002400250026103A28BFF5
:1001900078C1FBD8520728BF30C148BF0B607047F9
:1001A000662906F01881642900F05280002070470B
:1001B0001FB500F0B9FB04000020002104F0D4FDBD
:1001C000E0601FBD10B510BD00F0AEFC1146FFF79A
:1001D000EFFF04F057F800F0CCFC03B4FFF7F2FF98
:1001E00003BC00F00FFD00000948804709480047A4
:1001F000FEE7FEE7FEE7FEE7FEE7FEE7FEE7FEE7D7
:10020000FEE7FEE704480549054A064B7047000033
:1002100085260008ED0000089810002098160020A0
:1002200098120020981200200FB41CB5074B06AAA4
:100230007B4469460090059800F05DFB002069460C
:1002400000F06CFB1CBC5DF814FB0000E90600002C
:100250002DE9F0410646002410687529314616A59F
:1002600010D0AFF30080002802DA404213A507E067
:1002700031688A0701D512A502E0490704D511A506
:10028000012401E0AFF3008000210A2206F12407D7
:1002900009E0B0FBF2FCB0FBF2F302FB1C003030D3
:1002A00078541846491C0028F3D123462A46304684
:1002B000BDE8F04100F0B1B8000000002D000000E2
:1002C0002B000000200000002DE9F0474FF0000A4D
:1002D00089460446C0F820A02046E16888470028E7
:1002E00076D0252806D0D4E901219047206A401C09
:1002F0002062F1E7E168204600258847C4F81CA089
:1003000006460027C4F818A02A2E09D0304603F06C
:1003100003FC38B304EB8708303EC8F8186019E0D6
:1003200059F8041B204604EB87029161E168884775
:10033000012F064618D1E069002820DA25F02005B3
:100340001DE0D8F8180000EB800006EB40003038C4
:10035000C8F818002046E1688847064603F0DCFB31
:100360000028EED1012F0AD02E2E08D12046E168B8
:1003700088477F1C0646022F45F02005C4DBA06994
:10038000002803DA404245F00105A061E80701D0EA
:1003900025F01005B6B1A6F14100192802D8203683
:1003A00045F400654A463146204625604D46FFF734
:1003B000F7FE58B1012806D0ED1D25F0070000F129
:1003C000080989E704E005F1040985E730468AE772
:1003D000206ABDE8F08710B5431C02E010F8011B4D
:1003E00071B18107FAD14FF0013202C88C1A8C43E7
:1003F00014EAC211F9D0C01A0A0603D0C01E10BDFB
:10040000C01A10BD0A0401D0801E10BD0902FCD024
:10041000401E10BD7047704770472DE9F0470D46EC
:1004200099469246044600F124080168880604D5DE
:10043000E06921F01001216000E00120A84201DD07
:10044000471B00E00027A1697A1902EB0900081A8E
:10045000A0612078C00602D42046AFF300800026B9
:1004600008E0D4E901211AF806009047206A401CF0
:10047000761C20624E45F4DB2078C0060AD5204663
:10048000AFF3008006E0D4E9012130209047206AD4
:10049000401C2062381EA7F10107F4DC07E0D4E914
:1004A000012118F805009047206A401C2062281E90
:1004B000A5F10105F3DC2046AFF3008020780006AB
:1004C00002D50220BDE8F0870120FBE770472DE947
:1004D000FF4F0C461E464FF0FF378BB0D2E90001AC
:1004E000DDF860800A908A46C1F30A5505B93D4699
:1004F000002108464FF00000BAF1000F00F4400060
:1005000005DA00EB80004FF4400101EA50004FEAA9
:100510009059B9F1010F00DDB9460A9850EA4A0036
:100520000ED044F61050A5F2FF3545432F14B8F114
:10053000000F1ED07542291E1EDDC9F100021CE00D
:10054000B8F1010F4FF0000001D0302103E0F24379
:1005500005E02154401CB042FBDB30460022002164
:1005600021540B99C1F80880C1E900200FB0BDE803
:10057000F08FBD1B6D1CDEE74A4600DA694206A813
:1005800000F05CFA06AB93E8070003AB83E80700D2
:1005900050460A9900F03DFB8DE80700A0F5005099
:1005A0001F3800900398002D0ADD42F21F014A46D1
:1005B0000844002303A90390684600F0A6FD09E063
:1005C000A0F500504A461F38002303A9039068464F
:1005D00000F0B0FD8DE807000004000C03D04FF0E0
:1005E000FF30410800E01046B8F1000F03D00022B0
:1005F000009215461EE0751E05D400F099F93032C0
:1006000062556D1EF9D5B3460122084302D000227F
:100610007F1C04E02078302801D100227F1E002AB0
:10062000099784D01DE0112D07DA00F081F93032EE
:1006300062556D1C50EA0102F5D1084302D00098C2
:10064000C8B10EE00021681E05E0235C625C6354C3
:100650002254401E491C8142F7DBAB46A81B401EBA
:100660000990002004F80B000B98099AC0F8088044
:10067000C0E9002B7AE711264FF0000857E72DE973
:10068000F04F88460446D21D22F0070191B0D1E90F
:100690000001CDE90A0103F02BFA02460B98C00FC6
:1006A00001D02D2007E02068810701D52B2002E032
:1006B000202101EAC000032A099001D0072A05DBA6
:1006C00003464146204600F079F90BE12078800688
:1006D00001D5E06900E00620B8F1650F814606D03B
:1006E000B8F1660F18D0B8F1670F70D131E0002073
:1006F000B9F1110F009001DB112301E009F10103B1
:100700000AAA01A90CA8FFF7E2FEDDE90C70002699
:1007100009F10105834647E001204B4600904FF068
:1007200000470AAA01A90CA8FFF7D1FEDDE90DB028
:100730000C995D46002610B909F101000D18B9EBBE
:10074000050003D4C0F1FF3609F10105A5EB09004E
:100750002BE0B9F1010F01DA4FF001090020B9F1E6
:10076000110F0090484601DD112300E003460AAA5C
:1007700001A90CA8FFF7ABFEDDE90C704D46002681
:100780008346207800070AD4AB4500DA5D4601A80D
:10079000012D04DD411911F8011C302907D04F4506
:1007A00002DA17F1040F04DA012082460FE06D1E11
:1007B000EEE7002F02DCED1B3E4403E0781CA8426C
:1007C00000DD7D1CB81B00F1010A4FF000472078C6
:1007D000000703D4AA4501DB4FF0FF3A0021B7F12F
:1007E000004F0DF143088DF8431024D002202B2335
:1007F000002F01DA7F422D230A21021EA0F1010001
:1008000000DC5FB197FBF1FC97FBF1F201FB1C7C74
:1008100017460CF1300C08F801CDEEE7A8F1010005
:1008200003702188090501D5452100E06521A0F16B
:10083000010800F8011C09980FA9A1EB0807FF1D8A
:1008400000B10120411901EBEA70A1693844081A8E
:10085000401EA0612078C00602D42046AFF300807D
:10086000099828B1D4E901219047206A401C2062F0
:100870002078C00622D52046AFF300801EE0002E6F
:1008800004DBB34502DD01A8805D00E03020D4E93F
:1008900001219047206A401C2062761CAAF10100C9
:1008A0005FEA000A0AD100F03FF8C0680168405CC6
:1008B000D4E901219047206A401C2062281EA5F13E
:1008C0000105DCDC07E0D4E9012118F8010B9047B1
:1008D000206A401C2062381EA7F10107F3DC204685
:1008E000AFF30080032011B041E6000001694A1C0B
:1008F00002610878704700B58FB0CDE90131002161
:10090000059105497944CDE9031011466846FFF782
:10091000DBFC0FB000BD0000E5FFFFFF0A6802F836
:10092000010B0A6070470000004870475410002017
:1009300030B5B0F10A024FEA900E71F100034EEAB1
:10094000817EB0EB0E0061EB91014FEA101E4EEA82
:10095000017E10EB0E0041EB11114FEA102E4EEA12
:10096000016E10EB0E0041EB11214FEA104E4EEAE2
:10097000014E10EB0E0041EB1141401841F1000116
:100980004FEAD00040EA41704FEAD10110EB8005F8
:100990004FEA810444EA907444EB01046D1944EB7E
:1009A0000404521BA3414FF0000348BF0A3200D594
:1009B00030BD401C41F1000130BD00002DE9F04187
:1009C0001F46044603260168072A01F4006004DB81
:1009D00008B116A505E016A503E008B115A500E0CD
:1009E00015A521F010002060A069C01EA0610FB104
:1009F000401EA0612046AFF300804FB1D4E9012131
:100A000038469047206A401C2062C01C206206E0E5
:100A1000206AFAE7D4E9012115F8010B9047761E08
:100A2000F8D22046AFF30080BDE8F0814E414E0081
:100A30006E616E00494E4600696E66002DE9F04712
:100A4000814616468AB0354878440DC88DE80D00B9
:100A500032487844801C03AC0DC884E80D0041F690
:100A60009B300844372190FBF1F290FBF1F5A5F1A2
:100A7000800501FB12041B3C02D56442012000E00A
:100A80000020DFF898A080460027FA44AAF1BE0AA9
:100A90000EE0E0070AD03246684607EB4701012323
:100AA0000AEB810100F046FB8DE8070064107F1C13
:100AB000002CEED1194F7F44AE3F19E0E80715D066
:100AC00007EB04100DF1180A90E80E008AE80E00FA
:100AD000C068F04201D1981908903246012306A956
:100AE00003A800F027FB03AB83E807006D10641C2C
:100AF000002DE3D14FF0010332466946B8F1000FF3
:100B000003A802D000F001FB01E000F013FBC9E9EB
:100B10000001C9F808200AB0BDE8F0870C5A0000AF
:100B200000487047341000207546FFF7F9FFAE46C5
:100B300005006946534620F00700854618B020B5E9
:100B4000FFF760FBBDE820404FF000064FF00007C4
:100B50004FF000084FF0000B21F00701AC46ACE865
:100B6000C009ACE8C009ACE8C009ACE8C0098D46D2
:100B7000704710B50446AFF300802046BDE8104032
:100B8000FFF72BBB4FF0013C50F8042B51F8043B0E
:100B90009A4221D1A2EB0C03934313EACC1317D151
:100BA00050F8042B51F8043B9A4215D1A2EB0C03E8
:100BB000934313EACC130BD150F8042B51F8043BA8
:100BC0009A4209D1A2EB0C03934313EACC13DBD076
:100BD0004FF00000704700BFD01A01BAB1FA81F19E
:100BE00001F0180122FA01F0CB40C1F12001DBB283
:100BF000C0B2C01A2CFA01F3D11A914311EAC31101
:100C0000E6D1704701491820ABBEFEE7260002007E
:100C100070475FEA400C08BF91F0000F4FEA8C2349
:100C20004FEAC12243EA51514FEA1C5018BF00F568
:100C3000F0404FEA300018BF41F000415FEA6C5CC1
:100C400000F02980BCF1FF3F08BF40F080407047B2
:100C5000130C06BF12044FF0100C4FF0000C130ED3
:100C600004BF12020CF1080C130F04BF12010CF1A7
:100C7000040C930F04BF92000CF1020CD30F04BFBD
:100C800052000CF1010C11464FF00002A0F11F00C0
:100C9000A0EB0C00704711F0004F08BF704731F017
:100CA00000413FF4D5AF0B0C06BF09044FF0100C08
:100CB0004FF0000C0B0E04BF09020CF1080C0B0FD7
:100CC00004BF09010CF1040C8B0F04BF89000CF167
:100CD000020CCB0F04BF49000CF1010CCCF1200336
:100CE000A0EB0C0022FA03F302FA0CF241EA030132
:100CF00000F10100704720F07F4C80EA030023F0F0
:100D00007F47ACEB070303F57C5300F0004003F191
:100D1000FF032DE980494FEA154B09B44FEA14430C
:100D200025EA0B4E24EA03480FF2042606EB1327AC
:100D300049083E785FEA320203FB0667C7F5000701
:100D400007FB06F64FEA54374FEAD64606F102068D
:100D500007FB066CCCF1005C4FEA1C472CEA074C01
:100D600007FB06F40CFB06F504EB15464FEA961656
:100D700034BF00204FF000404FEAD13706FB07FC9C
:100D80004FEA1C4C0CFB0BF7D21B03FB0CF761EB7F
:100D900007010CFB0EF7B0EB074072EB17420CFBA0
:100DA00008F734BFA2EB0742B2EB074261EB1741F1
:100DB0004FEA0C444FEA910706FB07FC4FEA1C4C34
:100DC0000CFB0BF7B0EBC74072EB573203FB0CF791
:100DD00034BFA2EBC742B2EBC74261EB57310CFB09
:100DE0000EF7B0EBC70072EB57720CFB08F734BF7D
:100DF000A2EBC702B2EBC70261EB5771039F4FEA48
:100E0000816141EA921104EBCC044FEAD1374FEAF9
:100E1000826206FB07FC42EA90124FEA80604FEACA
:100E20001C4C0CFB0BF7D21B03FB0CF761EB07010F
:100E30000CFB0EF7B0EB074072EB17420CFB08F708
:100E400034BFA2EB0742B2EB074261EB17414FEA16
:100E50008C554FEA910704EB9C2406FB07FC4FEAF4
:100E60001C4C0CFB0BF7B0EBC74072EB573203FB8B
:100E70000CF734BFA2EBC742B2EBC74261EB57316C
:100E80000CFB0EF7B0EBC70072EB57720CFB08F7C8
:100E900034BFA2EBC702B2EBC70261EB577115EB8F
:100EA0004C254FEA816141EA92114FEA82624FEA92
:100EB000D13742EA901206FB07FC44F100044FEAE6
:100EC00080604FEA1C4C0CFB0BF7D21B03FB0CF7AA
:100ED00061EB07010CFB0EF7B0EB074072EB17421A
:100EE0000CFB08F734BFA2EB0742B2EB074261EB01
:100EF000174115EB1C154FEA813141EA92414FEA47
:100F0000823242EA90424FEA80304FEA0C7644F156
:100F1000000448EA03434EEA0B484FF0000EB2EBE0
:100F2000080C71EB030724BF624639464EEB0E0EE8
:100F30004FF0000B0018524149414BEB0B0BB2EB49
:100F4000080C71EB03077BF1000B24BF62463946A6
:100F50004EEB0E0E4FF0000B0018524149414BEB87
:100F60000B0BB2EB080C71EB03077BF1000B24BFFA
:100F7000624639464EEB0E0E51EA020718BF46F0A4
:100F8000010616EB0E7655F1000254F1000103D56F
:100F9000BDE88901BDE80088BDE88901BDE80048D9
:100FA000B619524141EB0101A3F101037047808062
:100FB0007F7E7D7C7B7A79787776767574737271B3
:100FC00071706F6E6E6D6C6C6B6A6A69686867666B
:100FD00066656464636362616160605F5F5E5E5DFD
:100FE0005D5C5C5B5B5A5A59595858575756565571
:100FF00055555454535352525251515050504F4FD3
:101000004F4E4E4D4D4D4C4C4C4B4B4B4A4A4A4922
:101010004949484848474747474646464545454465
:101020004444444343434342424242414141002BF2
:101030009C4630D477002BD01CB54FEA370703B459
:101040004FF010004FF01001BAF1000F06D0BCF1C4
:10105000000FDCBF40F0080040F008014FF0000036
:101060000FBCBDE810400BF1010BBBF1010F08BF35
:101070005FEA170722BF12F1010211F101014FF0DF
:10108000004143F1000300F0004043EA00007047D4
:10109000F9D35708D0E746EA064613F1400F4FEA66
:1010A00016461FDD13F1200FDFBF16430A4600214D
:1010B00020335B42BED0C3F1200746EA064602FA5F
:1010C00007F74FEA164646EA0706C3F1200722FA59
:1010D00003F201FA07F721FA03F14FF0000342EAA5
:1010E0000702A7E746EA020646EA06464FEA164620
:1010F00046EA0106BCBF46EA0646360C4FF000033E
:101100004FF000024FF0000194E72DE9804C9A4621
:10111000934670B491E8380007C831EA400C48BFE4
:1011200034EA430C03D5FFF7E6FDFFF780FFF0BC80
:10113000BDE8008C2DE9804C9A46934670B491E846
:10114000380007C810F0804F08BF13F0804F03D15C
:1011500000F005F8FFF76BFFF0BCBDE8008C20F055
:101160007F4780EA030023F07F4C07EB0C03A3F5D5
:101170007C5300F00040A3F1FE0392F0000F00F05A
:10118000B38095F0000F00F077802DE901494FEA18
:1011900011404FEA144621EA004800FB06FC24EA0D
:1011A000064708FB06F607FB08F800FB07F718EBF5
:1011B00006484CEB164C4FEA124B18EB07484FEA27
:1011C00015464CEB174022EA0B4E0BFB06FC25EABA
:1011D00006470EFB06F607FB0EFE0BFB07F71EEBA2
:1011E000064E4CEB164C4FF000061EEB074E4CEB38
:1011F000174B18EB0B0840F1000018EB0E0B58EBE7
:10120000000840F100008F1A4FF000013CBFC943B5
:10121000661B14BFB5EB040C00213CBFC943F61B91
:101220004FEA17444EEA8E0E27EA04454FEA1C4760
:1012300004FB07622CEA074C05FB07F70CFB05F6DD
:1012400004FB0CFC16EB074642EB174216EB0C4670
:1012500042EB1C421BEB060658EB0202414146EAF8
:101260009E0601D5BDE80189B619524141EB010145
:10127000A3F10103BDE801894FEA14454FEA114784
:1012800024EA054621EA074C05FB07F406FB07F7AD
:101290000CFB06F105FB0CFC11EB074144EB17447A
:1012A0004FEA124711EB0C4144EB1C4422EA074C75
:1012B00005FB07F206FB07F70CFB06F605FB0CFC2B
:1012C00016EB074642EB174216EB0C4642EB1C4569
:1012D0006A1854F1000148BF7047B619524141EBFA
:1012E0000101A3F10103704795F0000F37D04FEAD9
:1012F00011424FEA144721EA024624EA074C02FB56
:1013000007F106FB07F70CFB06F402FB0CFC14EBE1
:10131000074441EB17414FEA154714EB0C4441EBEE
:101320001C4125EA074C02FB07F506FB07F70CFBFF
:1013300006F602FB0CFC16EB074645EB174516EBD1
:101340000C4645EB1C42121951F1000148BF704791
:10135000B619524141EB0101A3F1010370474FEA75
:1013600014454FEA114724EA054621EA074C05FBDC
:1013700007F106FB07F70CFB06F24FF0000605FB32
:101380000CFC12EB074241EB174112EB0C4251EB04
:101390001C4148BF7047921841EB0101A3F10103C2
:1013A000704700004FEA404000F18040810028BFB4
:1013B000C0F100404000DFF860C0C0F3895109B3BC
:1013C0005CF82120C1F500715CF821304FEA8021E2
:1013D000DFF848C0A1FB0CC14FEA11214FF000001B
:1013E0001044A0FB01C04FEA5000A3EB0000A0FB9B
:1013F00001C010444FEA500028BF4042001440F1A1
:1014000000007047DFF818C0A0FB0CC04FEAD030D6
:1014100028BF404270470000944D0008A2DA0FC96F
:1014200037CD0FC991F0000F04BF6FF00040704737
:1014300010B54FF0010E90EA010F48BF4FF0000EBB
:10144000002848BF4042002948BF4942B0FA80F412
:101450000F2CA8BF0F2400FA04F2C4F10F0CB2FB4A
:10146000F1F0B0FA80F39C45A4BFCEF1004010BD6E
:1014700001FB1022B2FA82F464450EDAACEB040CE4
:1014800002FA04F200FA04F0B2FBF1F301FB1322BA
:101490001844B2FA82F46445F0DD02FA0CF200FA64
:1014A0000CF0B2FBF1F318449EF0000F08BF40426D
:1014B00010BD000080FB01014FEAD03000EB41403D
:1014C000704700004FEA4040810028BFC0F1004053
:1014D0004000DFF860C0C0F3895109B35CF82120F7
:1014E000C1F500715CF821304FEA8021DFF848C077
:1014F000A1FB0CC14FEA11214FF000001044A0FBEA
:1015000001C04FEA5000A3EB0000A0FB01C0104453
:101510004FEA500028BF4042001440F100007047DD
:10152000DFF818C0A0FB0CC04FEAD03028BF404203
:1015300070470000944D0008A2DA0FC937CD0FC9DB
:1015400078B110F0004148BF4042B0FA80F3C3F1D7
:101550008F0200FA03F04FEA102062F3DE5041EAF6
:101560000000704721B1826842F00102826003E00E
:10157000826822F0010282607047000010B50446C4
:101580001248844208D10121401500F075FF002166
:10159000601500F071FF17E00D48844208D1012169
:1015A000001500F069FF0021201500F065FF0BE039
:1015B0000848844208D10121C80300F05DFF0021E2
:1015C0004FF4004000F058FF10BD0000002401401F
:1015D00000280140003C0140014600208A6802F0DA
:1015E00004020AB1012000E0002070470146C86CE7
:1015F00080B270470246002013680B400BB10120F7
:1016000000E000207047014600208A6802F00802CE
:101610000AB1012000E000207047000030B502460A
:101620000020002350680F4C20400D790C6844EADC
:1016300005242043506090680B4C2040D1E90254AF
:101640002C434D7944EA450420439060D06A20F44D
:1016500070000C7C641EE4B2234340EA0350D06265
:1016600030BD0000FFFEF0FFFDF7F1FFF0B50446CE
:101670000D4600200021092D11DDE068A5F10A06C4
:1016800006EB4607072606FA07F18843A5F10A0686
:1016900006EB460603FA06F10843E0600CE0206919
:1016A00005EB4507072606FA07F1884305EB4506D3
:1016B00003FA06F108432061072A0FDA606B561E11
:1016C00006EB86071F2606FA07F18843561E06EB2F
:1016D000860605FA06F10843606322E00D2A0FDA58
:1016E000206BD61F06EB86071F2606FA07F18843F4
:1016F000D61F06EB860605FA06F10843206310E0C4
:10170000E06AA2F10D0606EB86071F2606FA07F12E
:101710008843A2F10D0606EB860605FA06F108439A
:10172000E062F0BD816841F008018160704721B13D
:10173000826842F4A002826003E0826822F4A00280
:1017400082607047816841F004018160704710B584
:1017500000F086FC10BD2DE9F04106460F46144608
:101760001D4600F01FFD002141EA4601C8B200F00D
:10177000EDFC00F05DFD20B100F038FD0120BDE87A
:10178000F081384600F0E2FC00F052FD00F00AFD66
:10179000012101EB4601C8B200F0D8FC00F048FD81
:1017A0000DE0012C04D1002000F09CFC287003E027
:1017B000012000F097FC2870601EC4B26D1C002C44
:1017C000EFD100F013FD0020D9E7000000B587B08D
:1017D000012140F2046000F03FFE4FF4004000F0B1
:1017E000FFFD1220ADF8040000208DF8070001A9CC
:1017F0002B4800F097FA2B48FFF7C0FE2A48FFF766
:10180000BDFE002002908DF80C008DF80D004FF405
:10181000602004900020059001208DF8180002A996
:101820002048FFF7FBFE002002908DF80C008DF899
:101830000D004FF4602004900020059001208DF8E9
:10184000180002A91848FFF7E9FE01211548FFF723
:1018500089FE01211448FFF785FE1248FFF762FF59
:101860001148FFF75FFF00BF0E48FFF7CCFE20B125
:101870000D48FFF7C8FE0028F6D10A48FFF762FFBF
:101880000948FFF75FFF00BF0648FFF7A5FE20B13C
:101890000548FFF7A1FE0028F6D107B000BD000003
:1018A00000080140002401400028014000BFFEE77D
:1018B00010B508480068000307490968B1FBF0F05B
:1018C0004FF4B47100FB01F4204604F0ABF8034A76
:1018D00003C210BDA00100207C010020880100206F
:1018E00010B54FF0007000F0D1F850B14FF000701B
:1018F00000F00CF80120034908700021024800F0B4
:1019000013F810BD660100208000024000F08051F5
:1019100011B10349086001E00249486070470000C6
:10192000040402400000024021B1026842F00102BA
:10193000026004E002684FF6FE731A4002607047CE
:1019400001684FF6FE7211400160002101604160A4
:101950008160C1604B49884208D14A4908394968C9
:1019600041F00F01474A083A51608AE04549143175
:10197000884208D143490839496841F0F001414A99
:10198000083A51607DE03F492831884208D13D49FD
:101990000839496841F470613A4A083A516070E088
:1019A00038493C31884208D136490839496841F400
:1019B0007041344A083A516063E0324950318842FC
:1019C00008D130490839496841F470212D4A083A54
:1019D000516056E02B496431884208D129490839C1
:1019E000496841F47001274A083A516049E02549A5
:1019F0007831884208D123490839496841F070613B
:101A0000204A083A51603CE01F49884206D1011F34
:101A1000096841F00F01021F116032E01A491431C8
:101A2000884208D11849091F096841F0F001164A97
:101A3000121F116025E014492831884208D112494B
:101A4000091F096841F470610F4A121F116018E004
:101A50000D493C31884208D10B49091F096841F4FE
:101A60007041094A121F11600BE00749503188424A
:101A700007D10549091F096841F47021024A121F64
:101A8000116070470800024008040240014600202F
:101A9000002201F0805313B1054B1A6801E0054B99
:101AA0001A6802EA01030BB1012000E00020704730
:101AB00000040240000002401AB103680B430360B7
:101AC00002E003688B430360704710B50022026890
:101AD00047F6F0739A430C6A8B6823430C692343DF
:101AE0004C6923438C692343CC6923434C6A2343C9
:101AF0008C6A23431A430260CB6843600B6883609F
:101B00004B68C36010BD41607047704710B501203D
:101B100000F03EF8642002F047FA0148006810BD6A
:101B20000081214210B5142002F03EFA0D480068F1
:101B3000A0B900200C49086288620C480068B0F522
:101B4000004F06DA0948006800F6CC4007490860F3
:101B500002E000200549086002F0BAF8102000F009
:101B600017F810BD108121428000002020000020C5
:101B700010B5142002F018FA0448006808B902F001
:101B8000C1F8202000F004F810BD000014812142AB
:101B900001490860704700001404014000212349F6
:101BA0008279002A3AD00A46126803689A430B46A3
:101BB0001A600A1D126803689A430B1D1A600279A5
:101BC00011440A6803681A430A60184A0832126806
:101BD00003689A43154B08331A601A1D126803688C
:101BE0009A43124B0C331A604279102A0ED11A1FF5
:101BF000126803681A430D4B08331A601A1D1268E5
:101C000003681A43094B0C331A600DE00749427907
:101C100011440A6803681A430A6005E00279114416
:101C20000A6803689A430A60704700000004014094
:101C30000EB50121092000F00FFC012000F05DFB32
:101C40003120ADF8080004208DF80B0002A91448DB
:101C500000F068F80421012000F044F81020009002
:101C600000208DF804000C208DF8050001208DF86F
:101C700006006846FFF792FF0521012000F032F8C8
:101C80002020009000208DF804000C208DF8050025
:101C900001208DF806006846FFF780FF0EBD0000AA
:101CA000000C014001B50A208DF8000002208DF8DB
:101CB000010000208DF8020001208DF80300684625
:101CC00000F04AFB17208DF8000002208DF801007B
:101CD00001208DF802008DF80300684600F03CFBFF
:101CE00008BD000030B500228B071C0F0F2303FA3C
:101CF00004F20B4B8C1053F824309343084C8D1096
:101D000044F8253023468C1053F824308C07240FD8
:101D100000FA04F42343024C8D1044F8253030BD02
:101D2000080001402DE9F041024600250026002070
:101D300000230024002791F803C00CF00F0591F850
:101D400003C00CF0100CBCF1000F03D091F802C0DE
:101D50004CEA050591F800C0BCF1000F31D01468C1
:101D600000202BE04FF0010C0CFA00F3B1F800C09A
:101D70000CEA03069E4220D183004FF00F0C0CFAB0
:101D800003F7BC4305FA03FC4CEA040491F803C0D2
:101D9000BCF1280F06D14FF0010C0CFA00FCC2F880
:101DA00014C00AE091F803C0BCF1480F05D14FF010
:101DB000010C0CFA00FCC2F810C0401C0828D1D35A
:101DC0001460B1F800C0BCF1FF0F34DD546800208E
:101DD0002EE000F1080C4FF0010808FA0CF3B1F8FE
:101DE00000C00CEA03069E4221D183004FF00F0C85
:101DF0000CFA03F7BC4305FA03FC4CEA040491F81F
:101E000003C0BCF1280F05D100F1080C08FA0CF84A
:101E1000C2F8148091F803C0BCF1480F07D100F15B
:101E2000080C4FF0010808FA0CF8C2F81080401CAA
:101E30000828CED35460BDE8F081416170470000AE
:101E400010B504460723012221460948FFF70EFC7E
:101E500001210748FFF76BFC00BF02210448FFF790
:101E6000C9FB0028F9D00248FFF7C0FB10BD0000F5
:101E70000024014010B504460723012221460948E9
:101E8000FFF7F4FB01210748FFF751FC00BF0221D7
:101E90000448FFF7AFFB0028F9D00248FFF7A6FB84
:101EA00010BD00000028014070B500BF0E4800685A
:101EB000642148430D490968642251430903B0FB7A
:101EC000F1F201FB1204094800680003B4FBF0F0D2
:101ED0004FF4B47148436421B0FBF1F5284603F098
:101EE000A1FD034A03C270BD7C010020A0010020B7
:101EF0009801002010B5194B02220C213620FFF763
:101F00002AFC164840781549097840EA012014490E
:101F1000086014480068096888420DD311480068B9
:101F20000F490968441AB4F5006F12D90E480068C9
:101F3000401C0D4908600CE009480068094909681F
:101F4000441AB4F5006F04D907480068401E0649DA
:101F50000860034800680349086010BD8001002044
:101F600078010020740100208401002024480068CA
:101F7000D8B9244800682449096888420AD321480E
:101F8000006821490968401A20490860002020495A
:101F9000086033E01C4800681A490968401A1B4968
:101FA000086001201A49086028E0154800680028E8
:101FB00011DD1448006800F5805013490968411A82
:101FC0000F480068401E01EB0030104908600020F7
:101FD0000F49086012E00C48006800F5805008497D
:101FE0000968491C4FF4805202FB11000549096839
:101FF000401A064908600120054908607047000042
:102000008401002078010020700100207C01002064
:102010009001002000BFFEE710B500200D490860C8
:102020000D48006820F070400B49086008460068C1
:1020300040F04050086000200849C1F89C01012090
:102040000449086001F0D6FF00200449C1F8980156
:1020500010BD000098812142000C01400080214207
:1020600008B50121082000F0F7F9C020ADF8000004
:1020700010208DF8030003208DF802006946054802
:10208000FFF750FE0120044908600449C1F89C0193
:1020900008BD0000000C01409881214200802142CF
:1020A00010B500200C4908600C48006820F0704012
:1020B0000A4908600846006840F040500860012066
:1020C0000749C1F89C010449086001F093FF002012
:1020D0000349C1F8980110BD98812142000C0140CC
:1020E0000080214270B5054600241548006820F0A4
:1020F0007040134908600846006840F000400860DE
:10210000002613E000200F490860012001F072FF53
:1021100001200D49C1F898016006040E09487C3879
:10212000006808B1601CC4B2701CC6B2082EE9DB9E
:1021300015B9FFF7B5FF01E0FFF76EFF204670BD50
:10214000000C0140988121420080214270B5044674
:102150001148006820F070400F4908600846006888
:1021600040F04050086000200C490860002510E055
:10217000E0090A49091D08606006040E01200849AB
:10218000C1F8980101F036FF002004490860681C7E
:10219000C5B2082DECDB70BD000C014098812142D6
:1021A0000080214210B50E48006820F070400C49B4
:1021B00008600846006840F0405008600120094966
:1021C00008600949C1F8980100200649086001200B
:1021D00001F010FF00200449C1F8980110BD000073
:1021E000000C01409C8121420080214210B50D4825
:1021F000006820F070400B4908600846006840F015
:10220000405008600020084908600849C1F89C0156
:10221000012001F0EFFE0120034908600349C1F8E5
:102220009C0110BD000C0140988121420080214298
:1022300010B500241148006820F070400F49086074
:102240000846006840F00040086001200C49086022
:102250000C49C1F8980107E0601CC4B2052C03DDED
:10226000FFF7C4FF012010BD054880380068002832
:10227000F2D10349091F086000BFF4E7000C0140D8
:102280009C81214200802142014601F50041481015
:102290007047000008B50121142000F0DDF84FF46C
:1022A0000260ADF8000010208DF8030003208DF8C7
:1022B000020069460D48FFF735FD4FF402610B48F7
:1022C000FFF7BBFD4FF4C040ADF8000010208DF8C3
:1022D000030003208DF8020069460548FFF722FD40
:1022E0004FF4C0410248FFF7A8FD08BD00080140B7
:1022F0000010014000BFFEE7704738B504464FF4B8
:10230000806000F061F8012C02D10098FFF7CAFC50
:10231000022C02D1009800F0DDFB032C02D10098C2
:1023200000F024FF042C02D1009800F069FF052C76
:1023300002D1009800F0BEFB062C02D1009801F0FB
:10234000AFFA072C02D1009800F014FA082C02D141
:10235000009800F0C7F938BD70B5002100230F22A6
:10236000C47804B3154C246804F4E064C4F5E06454
:10237000210AC1F10403CA40447804FA03F18478C5
:102380001440214309010E4C0678A155047804F04D
:102390001F050124AC4005786D11AD0005F1E02565
:1023A000C5F8004109E0047804F01F050124AC40A1
:1023B000044D0678761145F8264070BD0CED00E01E
:1023C00000E400E080E100E002490143024A1160BC
:1023D000704700000000FA050CED00E070470000B7
:1023E00001460020034A506820F4404008435060F2
:1023F000704700000010024029B1064A52690243AA
:10240000044B5A6104E0034A52698243014B5A610A
:10241000704700000010024029B1064AD269024309
:10242000044BDA6104E0034AD2698243014BDA616A
:10243000704700000010024029B1064A12690243A9
:10244000044B1A6104E0034A12698243014B1A618A
:10245000704700000010024029B1064A9269024309
:10246000044B9A6104E0034A92698243014B9A61EA
:10247000704700000010024029B1064AD2680243AA
:10248000044BDA6004E0034AD2688243014BDA600D
:10249000704700000010024030B5002100220024E7
:1024A00000232D4D6D6805F00C0121B1042905D0E4
:1024B000082923D105E0294D056022E0274D05605C
:1024C0001FE0254D6D6805F47012234D6D6805F40D
:1024D0008034022505EB92421CB9214D554305601D
:1024E0000BE01D4D6D6805F400351DB11C4D5543C5
:1024F000056002E0194D5543056002E0174D056087
:1025000000BF00BF144D6D6805F0F0010909154DBD
:102510006B5C0568DD4045600F4D6D6805F4E0615A
:10252000090A104D6B5C4568DD4085600A4D6D6899
:1025300005F46051C90A0B4D6B5C4568DD40C56010
:10254000054D6D6805F44041890B074D6B5CC5680E
:10255000B5FBF3F5056130BD0010024000127A00B2
:1025600000093D00A4010020B4010020704710B50F
:1025700000F002F810BD00000CB5002001900090A2
:102580003348006840F480303149086000BF30486B
:10259000006800F4003000900198401C0190009801
:1025A00018B90198B0F5A06FF1D12948006800F47E
:1025B000003010B10120009001E000200090009850
:1025C000012843D12348006840F0100021490860E9
:1025D0000846006820F0030008600846006840F0E4
:1025E000020008601A484068194948600846406877
:1025F00048600846406840F480604860084640688B
:1026000020F47C1048600846406840F4E8104860B8
:102610000846006840F08070086000BF0C48006801
:1026200000F000700028F9D00948406820F003004D
:10263000074948600846406840F00200486000BF13
:102640000348406800F00C000828F9D10CBD0000D8
:102650000010024000200240042808D14FF0E02181
:10266000096941F004014FF0E022116107E04FF0E9
:10267000E021096921F004014FF0E0221161704767
:102680007047000010B51348006840F00100114980
:10269000086008464068104908400E4948600846EE
:1026A00000680E4908400B4908600846006820F49D
:1026B000802008600846406820F4FE0048604FF41F
:1026C0001F008860FFF753FF4FF000600449086067
:1026D00010BD0000001002400000FFF8FFFFF6FEF2
:1026E00008ED00E001B519208DF8000001208DF8FB
:1026F000010000208DF8020001208DF803006846DB
:10270000FFF72AFE08BD000010B50121164800F0B1
:102710002DFB20B30120154908601548007800F012
:10272000010018B1002001F00BFE15E01048007800
:10273000C0F3C00080B90E480078C0F3800010B12B
:1027400001F0ACFC08E0002008491831086001F0F5
:10275000DBFF002001F0F4FD0020044908600121A6
:10276000014800F0F0F910BD002C01409401214215
:102770001400002001B51C208DF8000001208DF808
:1027800001008DF802008DF803006846FFF7E4FDB4
:1027900008BD00002DE9F05F002401219F4800F0F2
:1027A000E5FA00287ED09E480068C0439D49C1F8E4
:1027B000B4019D480078012804D0022844D00328A1
:1027C00071D186E099490868FEF7BAFE83469849B8
:1027D00003F0C0FC8246964903F04CFB814603F0AF
:1027E0006DFC85B29349C868FEF7AAFE83469049FE
:1027F00003F0B0FC82468E4903F03CFB814603F0B7
:102800005DFC86B28C490868FEF79AFE83468849CB
:1028100003F0A0FC8246864903F02CFB814603F0BE
:102820004DFC87B283490869FEF78AFE83468049DA
:1028300003F090FC82467E4903F01CFB814603F0C6
:102840003DFC1FFA80F8C8E07C490868FEF778FE76
:102850008346774903F07EFC8246754903F00AFB04
:10286000814603F02BFC85B274494868FEF768FE88
:1028700083466F4903F06EFC82466D4903F0FAFA15
:10288000814603F01BFC86B26B490868FEF758FED0
:102890008346674903F05EFC8246654903F0EAFA25
:1028A000814601E0B4E056E003F008FC87B26149DC
:1028B0000869FEF745FE83465D4903F04BFC8246FE
:1028C0005B4903F0D7FA814603F0F8FB1FFA80F862
:1028D00083E05B490868FEF733FE8346544903F002
:1028E00039FC8246524903F0C5FA814603F0E6FB03
:1028F00085B253494868FEF723FE83464C4903F0EE
:1029000029FC82464A4903F0B5FA814603F0D6FB1A
:1029100086B24A490868FEF713FE8346444903F02D
:1029200019FC8246424903F0A5FA814603F0C6FB32
:1029300087B242494868FEF703FE83463C4903F0EC
:1029400009FC82463A4903F095FA814603F0B6FB4A
:102950001FFA80F841E035490868FEF7F1FD83462B
:10296000334903F0F7FB8246314903F083FA81468D
:1029700003F0A4FB85B22F49C868FEF7E1FD83464A
:102980002B4903F0E7FB8246294903F073FA81469D
:1029900003F094FB86B228490868FEF7D1FD834610
:1029A000234903F0D7FB8246214903F063FA8146AD
:1029B00003F084FB87B21F490869FEF7C1FD834617
:1029C0001B4903F0C7FB8246194903F053FA8146BD
:1029D00003F074FB1FFA80F800BF00BF55201949AF
:1029E00008702C46201248708C7034462012C87033
:1029F0000C713C46201248718C7144462012C871FB
:102A00000C72FF2048720A200F49088002F098F9E2
:102A10000121024800F097F8BDE8F09F0004004053
:102A2000B40122420000224215000020B000002024
:102A300000007A449C090020E000002010010020E2
:102A400080000020F60C0020640100203EB5054601
:102A50000C4601210220FFF7DFFC01210420FFF7D3
:102A6000FBFC681E80B2ADF80400601E80B2ADF8B9
:102A700000000020ADF80600ADF8020069460C48E1
:102A800000F09EFA0520FFF738FC0121084800F00D
:102A90005AF801221146064800F079F9012104484C
:102AA00000F029F80121024800F050F83EBD000076
:102AB0000004004001B51D208DF8000002208DF8B3
:102AC00001008DF8020001208DF803006846FFF731
:102AD00043FC08BD01B51E208DF8000001208DF8D3
:102AE000010002208DF8020001208DF803006846E5
:102AF000FFF732FC08BD21B1028842F0800202805B
:102B000004E002884FF67F731A40028070470A88FB
:102B10004B881A438B881A43CB881A430B891A4374
:102B20004B891A438B891A43A0F84420704721B17E
:102B3000828842F00102828004E082884FF6FE73B0
:102B40001A4082807047CA430282704721B10288CE
:102B500042F00102028004E002884FF6FE731A4040
:102B60000280704731B1B0F8442042F40042A0F82E
:102B7000442005E0B0F84420C2F30E02A0F844203F
:102B80007047000010B504466848844208D101210E
:102B9000C014FFF771FC0021E014FFF76DFCC4E0E6
:102BA000B4F1804F08D101210846FFF745FC002110
:102BB0000120FFF741FCB8E05D48844208D10121C3
:102BC0000220FFF739FC00210220FFF735FCACE0C2
:102BD0005848844208D101210420FFF72DFC002130
:102BE0000420FFF729FCA0E05348844208D10121CA
:102BF0000820FFF721FC00210820FFF71DFC94E0CE
:102C00004E48844208D101211020FFF715FC002115
:102C10001020FFF711FC88E04948844208D10121C7
:102C20002020FFF709FC00212020FFF705FC7CE0B5
:102C30004448844208D101214014FFF71DFC0021C3
:102C40006014FFF719FC70E03F48844209D101216C
:102C5000C804FFF711FC00214FF40020FFF70CFC23
:102C600063E03A48844209D101210805FFF704FCDA
:102C700000214FF48010FFF7FFFB56E034488442F8
:102C800009D101214805FFF7F7FB00214FF400109F
:102C9000FFF7F2FB49E02F48844208D10121402090
:102CA000FFF7CAFB00214020FFF7C6FB3DE02A48A2
:102CB000844208D101218020FFF7BEFB0021802043
:102CC000FFF7BAFB31E02548844208D10121801585
:102CD000FFF7B2FB0021A015FFF7AEFB25E020486F
:102CE000844209D101210804FFF7C6FB00214FF4FB
:102CF0008030FFF7C1FB18E01A48844209D1012156
:102D00004804FFF7B9FB00214FF40030FFF7B4FB94
:102D10000BE01548844208D101218804FFF7ACFB81
:102D200000214FF48020FFF7A7FB10BD002C0140CD
:102D30000004004000080040000C0040001000406B
:102D40000014004000340140004C0140005001409C
:102D50000054014000180040001C004000200040CA
:102D600000400140004401400048014030B50246A7
:102D7000002000230024158A05EA0103958905EA4D
:102D8000010413B10CB1012000E0002030BD1AB1E4
:102D900083890B43838102E083898B43838170475E
:102DA00070B5002400220023058C4FF6FE763540D6
:102DB0000584028C8388048B4FF68F752C40B51EDA
:102DC0002C400D882C43751E2A400D892A434D88BE
:102DD0002A43144DA8420BD0134DA84208D0134DDE
:102DE000A84205D0124DA84202D0124DA84213D1DC
:102DF0004FF6F7752A404D892A434FF6FB752A4056
:102E00008D882A434FF6FF652B404FF6FF552B4028
:102E10008D892B43CD892B4383800483CD88858680
:102E2000028470BD002C014000340140004001408C
:102E300000440140004801400A460021018B4FF642
:102E4000F7731940114301837047000070B50024E7
:102E500000220023058C4FF6EF7635400584028C66
:102E60008388048B48F6FF752C404FF6FF452C40B5
:102E70000D884FF6FF7606EA05252C434FF6DF75E1
:102E80002A400D8906EA05152A434D8806EA0515EC
:102E90002A43154DA84202D0144DA8421DD14FF629
:102EA0007F752A404D894FF6FF7606EA05152A43BD
:102EB0004FF6BF752A408D8806EA05152A434FF65E
:102EC000FF352B404FF2FF752B408D8906EA8505B3
:102ED0002B43CD8906EA85052B4383800483CD8867
:102EE0000587028470BD0000002C014000340140C1
:102EF0000A460021018B4FF2FF7319404FF6FF7312
:102F000003EA0223194301837047000070B50024CF
:102F100000220023058C4FF6FF6635400584028CA5
:102F20008388848B4FF68F752C404FF6FC752C40B0
:102F30000D882C434FF6FF552A400D894FF6FF763A
:102F400006EA05252A434D8806EA05252A43154D3C
:102F5000A84202D0144DA8421DD14FF2FF752A405D
:102F60004D894FF6FF7606EA05252A434FF6FF35D1
:102F70002A408D8806EA05252A434EF6FF752B4028
:102F80004DF6FF752B408D8906EA05152B43CD893B
:102F900006EA05152B4383808483CD8885870284C8
:102FA00070BD0000002C0140003401400A460021A1
:102FB000818B4FF6F77319401143818370470000EE
:102FC000002202881D4B98420ED01D4B98420BD018
:102FD000B0F1804F08D01B4B984205D01A4B984255
:102FE00002D01A4B984204D14FF68F731A404B8887
:102FF0001A43174B984207D0164B984204D04FF60D
:10300000FF431A40CB881A4302808B8883850B8844
:1030100003850A4B98420BD0094B984208D00E4BBF
:10302000984205D00D4B984202D00D4B984201D1E9
:103030000B7A03860123838270470000002C014035
:10304000003401400004004000080040000C004033
:1030500000100040001400400040014000440140C6
:103060000048014008B54FF40070ADF8000003209F
:103070008DF8020018208DF8030069460748FEF716
:1030800051FE4FF48060ADF8000004208DF803007D
:1030900069460248FEF746FE08BD000000080140F0
:1030A00070B513480088C4B21148001D0088C5B22D
:1030B00004F0200068B140F225510D4800F025FCD5
:1030C0000C4801780078401C0A4A10700A484554A0
:1030D0000CE004F0100048B140F22441044800F034
:1030E00014FC00F070F800200249087070BD000068
:1030F0000038014004000020D00100201FB5044624
:1031000001210520FFF7A8F901218803FFF7A4F9A1
:1031100000940020ADF80400ADF80600ADF80800FA
:10312000ADF80C000C20ADF80A0069460E4800F01E
:103130006DFC01210C4800F0F7FB40210A4800F02B
:10314000DBFB012240F22441074800F039FC012258
:1031500040F22551044800F033FC0320FFF7CDF87E
:10316000FFF780FF1FBD00000038014001B525209A
:103170008DF8000000208DF8010001208DF802007C
:103180008DF803006846FFF7E7F808BD10B5044660
:103190002146054800F0A6FC00BF4021024800F08F
:1031A000D8FB0128F9D110BD0038014070B50546A3
:1031B0000E46002404E0285DFFF7E8FF601CC4B25F
:1031C000B442F8DB70BD704710B540F224410A48A4
:1031D00000F0CCFB78B100BF07480088C4B20648B5
:1031E000001D0088C4B200210448FEF79DFB00F0DA
:1031F00019F801F093FD10BD004400406C0002403E
:1032000001B526208DF8000000208DF80100022075
:103210008DF8020001208DF803006846FFF79CF846
:1032200008BD00002DE9F05FF748007855287DD1F2
:10323000F5484078AA28FAD1F448007800F0010057
:1032400090B94FF000090CE0F1480068C043F14923
:10325000C1F8B401142000F0A7FE09F101001FFA23
:1032600080F9B9F10A0FEFDB00F0E4FCE648807862
:10327000102822D2DFE800F02108223CF3F284CCAF
:10328000F1F0EFEEEDECEBEADF480079DE49C978CA
:1032900000EB012084B2204602F0C4FB82460022EB
:1032A000DD4B02F021FA05460022DC4B02F0CEFB9A
:1032B000074602F071FBDA49C860AFE2D2480079F4
:1032C000D149C97800EB012084B2204602F0AAFB64
:1032D00082460022D04B02F007FA07460022CF4B6D
:1032E00002F0B4FB054602F057FBCD49086195E2B8
:1032F000C5480079C449C97800EB012084B2A4F51F
:103300007A7002F078FB07460022C34B02F0ECF91A
:1033100005460022C14B02F099FB824602F03CFBBD
:10332000B0F5004F03DD4FF4004026E077E2A4F54E
:103330007A7002F060FB82460022B74B02F0D4F9AB
:1033400007460022B54B02F081FB054602F024FB44
:10335000002801DA002010E0A4F57A7002F04BFB9F
:1033600082460022AC4B02F0BFF907460022AB4B6D
:1033700002F06CFB054602F00FFBAA4908604DE223
:10338000A1480079A049C97800EB012084B2A4F5D6
:103390007A7002F030FB074600229F4B02F0A4F93E
:1033A000824600229D4B02F051FB054602F0F4FAE2
:1033B000B0F5004F02DD4FF4004026E0A4F57A702E
:1033C00002F019FB07460022934B02F08DF90546E7
:1033D0000022924B02F03AFB824602F0DDFA10F531
:1033E000004F01DA904810E0A4F57A7002F003FB78
:1033F00007460022884B02F077F905460022874BEA
:1034000002F024FB824602F0C7FA8849086005E210
:103410007D4800797C49C97800EB012084B2A4F58D
:103420007A7002F0E8FA074600227B4B02F05CF962
:1034300005460022794B02F009FB824602F0ACFA05
:10344000B0F5004F0CDD4FF4004030E0D9E1BEE1B3
:10345000A3E15EE119E1B9E074E02BE0DBE1D7E143
:10346000A4F57A7002F0C7FA824600226A4B02F095
:103470003BF907460022694B02F0E8FA054602F0E4
:103480008BFA10F5004F01DA674810E0A4F57A7066
:1034900002F0B1FA824600225F4B02F025F907469E
:1034A00000225E4B02F0D2FA054602F075FA60493E
:1034B0000860B3E1544800795349C97800EB012012
:1034C00084B2A4F57A7002F096FA82460022524B3A
:1034D00002F00AF907460022504B02F0B7FA0546FF
:1034E00002F05AFAB0F5004F02DD4FF4004026E03A
:1034F000A4F57A7002F07FFA82460022464B02F071
:10350000F3F805460022454B02F0A0FA074602F008
:1035100043FA10F5004F01DA434810E0A4F57A7041
:1035200002F069FA074600223B4B02F0DDF805463F
:1035300000223A4B02F08AFA824602F02DFA3D4907
:1035400008606BE1304800792F49C97800EB012011
:1035500084B2204602F066FA074600222E4B02F0A3
:10356000C3F8824600222D4B02F070FA054602F0A5
:1035700013FAB0F5A02F02DD4FF4A02023E020467F
:1035800002F050FA07460022234B02F0ADF8054640
:103590000022224B02F05AFA824602F0FDF900287E
:1035A00001DA00200FE0204602F03CFA0746002234
:1035B000194B02F099F805460022184B02F046FA22
:1035C000824602F0E9F91C49C86027E10E480079FB
:1035D0000D49C97800EB012084B2204602F022FA9E
:1035E000824600220C4B02F07FF8074600220B4B6C
:1035F00002F02CFA054602F0CFF9B0F5004F1DDDC0
:103600004FF400403EE00000500400201400002071
:10361000B40122420000224200408F400000E040FE
:1036200080000020200000200080FFFF1800002004
:103630001C00002024000020B0000020204602F0E2
:10364000F1F905460022774B02F04EF807460022BA
:10365000754B02F0FBF9824602F09EF9002801DA70
:1036600000200FE0204602F0DDF9824600226D4B7B
:1036700002F03AF8074600226B4B02F0E7F90546E4
:1036800002F08AF969490861C8E069480079684927
:10369000C97800EB012084B2204602F0C3F9074646
:1036A0000022604B02F020F8824600225E4B02F0BE
:1036B000CDF9054602F070F9B0F5A02F02DD4FF408
:1036C000A02023E0204602F0ADF982460022554BAF
:1036D00002F00AF805460022534B02F0B7F90746FC
:1036E00002F05AF9002801DA00200FE0204602F02B
:1036F00099F9824600224B4B01F0F6FF0546002265
:10370000494B02F0A3F9074602F046F94949C8605F
:1037100084E0474800794649C97800EB012084B22B
:10372000204602F07FF9824600223E4B01F0DCFF8A
:10373000074600223C4B02F089F9054602F02CF9BD
:10374000B0F5004F02DD4FF4004023E0204602F0C8
:1037500069F982460022334B01F0C6FF074600227A
:10376000314B02F073F9054602F016F9002801DA30
:1037700000200FE0204602F055F982460022294B36
:1037800001F0B2FF07460022274B02F05FF9054621
:1037900002F002F92749086140E0254800792449F0
:1037A000C97800EB012084B2204602F03BF9824642
:1037B00000221C4B01F098FF074600221A4B02F032
:1037C00045F9054602F0E8F81B49C86026E01848AC
:1037D00000791749C97800EB012084B2204602F035
:1037E00021F9824600220F4B01F07EFF074600229E
:1037F0000D4B02F02BF9054602F0CEF80E49086198
:103800000CE000F07FFA0A4800790C49087000BF0C
:1038100000F05EFA02E000F075FA00BF00BFBDE8FC
:10382000F09F000000408F400000E040B00000200A
:1038300050040020E00000201001002015000020AE
:1038400070B514480088C4B21248001D0088C5B283
:1038500004F02000A8B110490878411C0E4A1170EC
:103860000E490D5410460078082804DB00F028F8B3
:1038700000200949087040F22551064800F045F83B
:1038800007E004F0100020B140F22441014800F0AC
:103890003CF870BD004800400C000020D00600201D
:1038A00001B527208DF8000001208DF801008DF86A
:1038B00002008DF803006846FEF74EFD08BD704714
:1038C00000B50021002200BF0A48405C552808D1FD
:1038D000084B481C185CAA2803D10846FFF7EFFFE5
:1038E00000E0521C0020034B5854052A00DB00BDA9
:1038F00000BFFCE7D006002001F40072B2F5007FA3
:1039000000D100BFCA430280704710B500220023D7
:1039100040F66A14A14200D100BF0A12012494406B
:10392000A3B2DC43048010BD21B1828942F400526D
:10393000828104E082894DF6FF731A4082817047CC
:103940001AB1838A0B43838202E0838A8B4383828A
:10395000704702460020B1F5007F00D100BF1388F8
:103960000B400BB1012000E00020704770B502460B
:10397000002400230025002040F66A16B14200D141
:1039800000BFC1F3421501F01F03012606FA03F33D
:10399000012D02D19689334006E0022D02D1168A0C
:1039A000334001E0968A33400C12012606FA04F4F3
:1039B0001688344013B10CB1012000E0002070BD26
:1039C000F0B50346002400260025002040F66A17C3
:1039D000B94200D100BF1846C1F3421401F01F06DE
:1039E000012707FA06F5012C01D10C3004E0022C66
:1039F00001D1103000E014301AB107682F4307607E
:103A000002E00768AF430760F0BD00002DE9F04712
:103A100086B005460E460024A24600BFA1460027F8
:103A2000B08900B100BF2F462C8A4CF6FF700440CD
:103A3000F08804432C82AC894EF6F3100440B08821
:103A400031890843718908430443AC81AC8A4FF63D
:103A5000FF400440B0890443AC8201A8FEF71CFD7E
:103A60001F48874202D1DDF810A001E0DDF80CA06C
:103A7000A88900F4004040B10AEBCA0000EB0A102C
:103A800031684900B0FBF1F807E00AEBCA0000EB2F
:103A90000A1031688900B0FBF1F86420B8FBF0F03F
:103AA00004012009642101FB1089A88900F4004069
:103AB00040B1322000EBC900B0FBF1F000F007008C
:103AC000044308E0322000EB09106421B0FBF1F060
:103AD00000F00F0004432C8106B0BDE8F087000021
:103AE00000380140C1F308028280704700BFFEE742
:103AF000490050EAC12018BF04204A0D18BF40F009
:103B0000010040F2FF72B2EB515F08BF40F00200CB
:103B1000012808BF0520704730380A2801D201204B
:103B200070470020704700002DE9F74F8A46934602
:103B30003B48C0F800A0009801F074FF0646002240
:103B4000384B01F0D1FD04460022374B01F07EFFD7
:103B5000804601F021FF3249486000F0DDF833492A
:103B6000087008460078012806D12D48406800F505
:103B700000402B49486009E02C480078022805D114
:103B800027484068A0F5004025494860284800883B
:103B9000401C80B22649088058453EDD2048006818
:103BA0001F494968401A1E49C86108468068496A29
:103BB000884208D11A4AD1691069FDF77BFC18497F
:103BC000896A084401E01648806A15490862084677
:103BD000006A88620A46D2690B461B6AD118104AED
:103BE000D068FDF767FC0E4948620846406A49699B
:103BF000884202DD0A4840690AE00948406A0849EB
:103C00008969884202DA0648806901E00448406A0E
:103C100003498860002006490880BDE8FE8F000047
:103C2000800000200000B0400000E0404001002083
:103C30004A0100200020064908628862054908629E
:103C40008862054908628862044908628862704790
:103C50008000002010010020B0000020E0000020C3
:103C60001248007800F0FB00104908700846007800
:103C700000F0FE0008700846007800F0F7000870B9
:103C800000200B4908600B49086288620A490862F3
:103C900088620A490862886209490862886209499B
:103CA00008700949088009490880704714000020FD
:103CB000200000208000002010010020B000002023
:103CC000E000002040010020480100204A010020BF
:103CD0000A480078C0F3C00030B90848007840F0C6
:103CE00004000649087008E00448007840F001002C
:103CF0000249087000200249086070471400002043
:103D0000B401224200B5FFF7ABFF01200149086072
:103D100000BD0000B40122421E4840681E490968E7
:103D2000081A05D51B4840681B490968401A04E079
:103D30001848406818490968081A46F266618842BE
:103D400021DD1448406814490968081A46F2666182
:103D5000884207DD0F48406800F500400E490860C2
:103D6000012070470B4840680B490968081A40F663
:103D7000CC41884207DA07484068A0F50040064970
:103D800008600220EDE7034840680349086000200E
:103D9000E7E7000080000020580100204FF40040B9
:103DA0001C49C860002088600A2048600020086024
:103DB000194800681949C86019480068086146F246
:103DC0006660486140428861164800681649C860CC
:103DD00016480068086143F2333048614042886108
:103DE000134800681349C86013480068086143F22B
:103DF0003330486140428861104800681049C8600B
:103E000010480068086143F23330486140428861DD
:103E1000704700004C0000202C0000208000002093
:103E20003000002034000020100100203800002065
:103E30003C000020B0000020400000204400002092
:103E4000E00000204800002070B504460D464248BE
:103E5000C06842494860084604603F4800694049DC
:103E60004860084605603D4800683C494968401A7A
:103E70003A49C86108468068496A884208D1374A89
:103E8000D1691069FDF716FB3449896A084401E0DD
:103E90003248806A314908620846006A88620A46E8
:103EA000D2690B461B6AD1182C4AD068FDF702FB79
:103EB0002A4948620846406A4969884202DD274823
:103EC00040690AE02548406A24498969884202DA43
:103ED0002248806901E02148406A204988602048E2
:103EE00000681F494968401A1D49C8610846806832
:103EF000496A884208D11A4AD1691069FDF7DAFA8D
:103F00001749896A084401E01548806A1449086223
:103F10000846006A88620A46D2690B461B6AD118B5
:103F20000F4AD068FDF7C6FA0D4948620846406A54
:103F30004969884202DD0A4840690AE00848406A47
:103F400007498969884202DA0548806901E0044826
:103F5000406A0349886070BD9C090020B0000020C1
:103F6000E000002010B56FF00400FEF775FB0A4872
:103F700000680A49B0FBF1F009490870084600786A
:103F800000EB4001C1EBC0104FF6FF7101EAC00029
:103F90000449088010BD0000BC01002000127A0016
:103FA000B8010020BA0100200146114A12884A4394
:103FB0004FF0E0235A6100229A611A46126942F0DA
:103FC00001021A6100BF4FF0E022106900F0010207
:103FD0001AB100F48032002AF5D04FF0E0221269C5
:103FE00022F001024FF0E0231A6100229A6170472B
:103FF000BA0100200146114A12784A434FF0E023EB
:104000005A6100229A611A46126942F001021A614D
:1040100000BF4FF0E022106900F001021AB100F475
:104020008032002AF5D04FF0E022126922F001021E
:104030004FF0E0231A6100229A617047B801002016
:1040400008B56B4602220C213620FDF784FB9DF853
:1040500001009DF8001000EB012080B208BD0000B7
:104060002DE9F0478246504601F0DCFC8046084AC4
:10407000084B01F039FB06460022074B01F0E6FC35
:10408000044601F089FC1FFA80FA5046BDE8F0872B
:10409000CA54C1A8244982400000E04070B55F487E
:1040A0000088401C5D49088000205D49886040F61A
:1040B000CC40C86000200861084600F0BFF85848AE
:1040C000006858490860564840684860084640689B
:1040D00048610846016846F6D960FDF7EBF9514999
:1040E000496800EB61004F49886108468069496969
:1040F000401A4C49C861032008840846806900289A
:1041000003DD0846008C401E01E04648008C45490E
:1041100008840846C069002803DD0846008C401E5C
:1041200001E04048008C3F49088408464069002867
:1041300004DA0846008CC0F1070001E03948008C21
:10414000384908840846008C012803D00846008CB2
:1041500004280ED133488069324988600846406996
:10416000C969401A2F49C860084680694042086101
:1041700025E02C48008C022803D02A48008C052812
:104180000ED12848C06927498969084425498860B3
:1041900008464069C86008464069404208610EE030
:1041A0002048C0691F4988600846C0694042C8600D
:1041B000084640698969084440421A49086101205B
:1041C0001949086000F0A8FA16488168012000F03B
:1041D000DFFA1448C168022000F0DAFA11480169D8
:1041E000032000F0D5FA0D4800881049098888425C
:1041F00013DDFFF725FF0546FFF732FF04460C49A4
:10420000FDF758F90B4908600020044908800A4866
:10421000007840F008000849087070BD5001002087
:104220005009002064090020AC0121421600002042
:104230000080FFFF28000020140000202DE9F0413D
:104240000446A068FDF73EF90646A068FDF7AAF807
:1042500005462946E068FDF72DF9074631462069F5
:10426000FDF728F9381A206029462069FDF722F960
:1042700007463146E068FDF71DF938446060BDE847
:10428000F08100008CB0FEF7FDF9FFF76BFEFFF741
:1042900085FDFDF7FFFFFDF7CBFCFDF797FA482101
:1042A0004FF49670FEF7D2FBFDF7DAFE4FF4612073
:1042B00000F0E4FC4FF4E130FEF720FF00F034FAA8
:1042C000FDF745FA28E0FDF751FEFDF7F1FAFDF79D
:1042D000EBFDFDF70FFE114811A10CC806A8FBF776
:1042E000A3FF144814A102686846FBF79DFF06A8C7
:1042F000FCF771F8C4B2214606A8FEF757FF6846DE
:10430000FCF769F8C4B221466846FEF74FFF4FF448
:104310007A70FFF749FE00BFD5E700009801002042
:10432000252E32662043757272656E745F416E672A
:104330006C650A00840100202564206E756D0A00FA
:104340002DE9F04F85B04FF0000BFFF779FE824664
:10435000BE480078032806D11FFA8AF00322BC4920
:104360000968FFF7E1FBB9480078022805D101226E
:10437000B8480168504600F0F5FAB44800780328C0
:1043800006D1B548806841420122504600F0EAFA61
:104390001FFA8AF0FFF764FEB049096800EB010AD2
:1043A0000120FDF74DFD019001F03CFB0022AC4BDC
:1043B000CDE9020101F048FC8046AA4AAA4B01F06F
:1043C00093F906460022A94B01F040FB044601F098
:1043D000E3FAA74908600420FDF74CFD019001F0C5
:1043E00021FB06460022A34B01F02EFC04469D4A09
:1043F0009D4B01F079F900229C4BCDE9020101F0BF
:1044000025FB804601F0C8FA9949486008460068D3
:1044100040424968401A9649886008460068C8606A
:104420000968934A526801EB420044F6E611FDF731
:1044300041F88F4908610846C0688F4908608C4878
:10444000006948605046FDF73DF88B494861504689
:10445000FCF7A8FF884988610A4691691068FDF752
:1044600029F80446844A51695068FDF723F820442E
:104470008149C8600A4691695068FDF71BF80446F7
:104480007D4A51691068FDF715F8201A7A490861CC
:104490007A484142784ACDE90310103207CA8DE8C4
:1044A000070075480FC800F0FDF86848007801283B
:1044B00004D0022806D003280ED108E07048D0F8B6
:1044C00000B00CE06F488068C0F1000B07E06D4859
:1044D0008068C0F1000B02E04FF0000B00BF00BF8E
:1044E000594669480068FFF7AFFC6848C0F808A063
:1044F000674880686549C860664880680861084602
:10450000FFF79CFE61480068634908605F484068A7
:1045100048600846406848610846016846F6D96028
:10452000FCF7C8FF5C49496800EB61005A498861A3
:10453000084680694969401A5749C86103200884C0
:1045400008468069002803DD0846008C401E01E013
:104550005148008C504908840846C069002803DD92
:104560000846008C401E01E04B48008C4A490884F4
:1045700008464069002804DA0846008CC0F10700AC
:1045800001E04548008C444908840846008C012815
:1045900003D00846008C04280ED13F4880693E496C
:1045A000886008464069C969401A3B49C8600846A6
:1045B00080694042086125E03748008C022803D01A
:1045C0003548008C05280ED13348C06932498969C5
:1045D00008443149886008464069C8600846406917
:1045E000404208610EE02C48C0692B4988600846AB
:1045F000C0694042C8600846406989690844404231
:10460000254908612548007800F00100C8B1234819
:104610000078C0F3C000A0B101202149086000F07B
:104620007BF81D488168012000F0B2F81A48C16883
:10463000022000F0ADF818480169032000F0A8F846
:1046400001E0FFF70DFB05B0BDE8F08F150000207D
:1046500020000020240000208000002028000020EE
:104660000000A04083C0CAA145138D400000E04077
:10467000880900200002A0409C0900200040FFFFA4
:104680001C0000201001002018000020500900200C
:10469000B0000020E0000020640900201400002089
:1046A000AC0121420FB430B5DDE90A540698A842A6
:1046B00020DC0698A0421DDB0798A8421ADC079868
:1046C000A04217DB0E480068A84213DC0C480068C3
:1046D000A0420FDB0A484068A8420BDC084840684B
:1046E000A04207DB06488068A84203DC04488068D3
:1046F000A04201DAFFF706FB30BC5DF814FB0000B6
:10470000880900207047000010B500210148FEF71D
:1047100029FA10BD002C014010B501210148FEF717
:1047200021FA10BD002C014010B500F029F800F06E
:1047300005F8FFF7E7FF00F065F810BD08B54FF486
:10474000E060ADF8000018208DF8030003208DF81C
:10475000020069460848FDF7E5FA4FF46040ADF8FD
:10476000000018208DF8030003208DF80200694630
:104770000248FDF7D7FA08BD00080140000C0140CF
:1047800010B5012140F60D00FDF766FE10BD0000DA
:104790002DE9F04705460E463046FDF775FD064605
:1047A0003046FCF7CDFE824613480088134991FB42
:1047B000F0F0A0F10109484601F0A0FC8046514606
:1047C00001F0C8FC074601F079FC84B2012D04D049
:1047D000022D05D0032D0BD106E00948048007E027
:1047E0000748001D048003E005480830048000BF2E
:1047F00000BFBDE8F08700001600002000A24A04B8
:10480000342C014070B58CB000BF00BF00BF5248CF
:104810000088524991FBF0F0801E00EB80000001FF
:104820006421B0FBF1F084B24B4800884B4991FB06
:10483000F0F0801E00EB800000016421B0FBF1F07D
:1048400085B245480088454991FBF0F0801E00EB99
:10485000800000016421B0FBF1F086B24048FEF711
:1048600091F93D4800883D4991FBF0F0401E80B22F
:10487000ADF828000020ADF824004020ADF8260057
:104880000020ADF82A008DF82C0009A93448FEF765
:1048900097FB01213248FEF756F9012211463048B4
:1048A000FEF775FA0820FDF728FD6020ADF814002A
:1048B0000120ADF816000420ADF81800ADF81A403C
:1048C0000020ADF81C00ADF81E00ADF82000ADF8DA
:1048D000220005A92248FEF763FAADF81A5005A98F
:1048E0001F48FEF7B3FAADF81A6005A91C48FEF799
:1048F0000DFB08211A48FEF79FFA08211848FEF719
:10490000F7FA08211648FEF751FB4FF40060ADF8A6
:1049100004004010ADF806000020ADF80800CE20DD
:10492000ADF80A000020ADF80C00ADF80E00ADF8AF
:10493000100001A90A48FEF7EAF801210848FEF72D
:10494000F6F801210648FEF701F901210448FEF7B7
:1049500009F90CB070BD00001600002000A24A0446
:10496000002C01402DE9F04705460E46144630481C
:104970000088401C2E49088008460088A04254DB6D
:104980002C480660204601F0D1FB80462A4800886A
:1049900001F0CCFB8146414601F0CEFA074639468C
:1049A00028B200F04DF8234948600846006849687D
:1049B000401A2049C86108468068496A884208D17F
:1049C0001C4AD1691069FCF775FD1A49896A0844C7
:1049D00001E01848806A174908620846006A886240
:1049E0000A46D2690B461B6AD118124AD068FCF7F6
:1049F00061FD104948620846406A4969884202DD03
:104A00000C4840690AE00B48406A0A4989698842B3
:104A100002DA0848806901E00648406A0549886072
:104A200000200349088005490860BDE8F0870000C0
:104A30004801002010010020160000204C01002039
:104A40002DE9FF5F0446894655480088401C5449BB
:104A5000088054480088001B00B25349088008466B
:104A6000B0F90000B0F57A7F06DD0846B0F9000025
:104A7000C0F5805000B208804B48B0F9000010F536
:104A80007A7F07DA484800884042A0F5805000B29B
:104A9000454908804449B1F90000002801DB01467E
:104AA00000E04142962943DA404800883E4909889F
:104AB000084400B23D49088039480088192866DD5D
:104AC0003748008801F032FB4946009001F034FA83
:104AD000019001F0A3F907460022354B00F0B6FF24
:104AE00005460022334B00F0B1FF824600F054FF30
:104AF00003902E48B0F9000000F07DFF82460022AE
:104B00002D4B00F0F1FD074600222A4B00F09EFFDE
:104B1000054600F041FF02900399FCF783FC00B2C8
:104B20002649088000201E490880204908802EE080
:104B300000201E490880484601F070F9824652461E
:104B40000B4600201A4900F0CFFD07460022194B02
:104B500000F07CFF054600F01FFF03901248B0F9FB
:104B6000000000F048FF05460022134B00F0BCFD9A
:104B7000074600220F4B00F069FF824600F00CFF51
:104B800002900399FCF74EFC00B20C4908800548DE
:104B900004800A48B0F9000004B0BDE8F09F0000AE
:104BA00046010020420100205E0100204401002057
:104BB000000049400000E0400000B0405C010020DF
:104BC00000B58BB02948FCF7BBFE28481438FCF729
:104BD000B7FE01210846FDF70FFC25480090254847
:104BE00001901020029000200390049080200590F6
:104BF00000200690079008904FF400500990002084
:104C00000A9069461948FCF760FF194800901A4855
:104C100001900020029040F23E300390002004906A
:104C20008020059000200690079008904FF40050D7
:104C3000099000200A9069460C481438FCF745FF9B
:104C40000122C0210A48001FFEF77AFE012202213C
:104C50000648FCF731FF012104481438FCF764FED4
:104C600000210248FCF760FE0BB000BD800002404E
:104C700004440040F60C00205004002010B586B01B
:104C8000044601210420FDF7E7FB01214804FDF75C
:104C9000C3FB18208DF817000420ADF81400032082
:104CA0008DF8160005A91B48FDF73CF848208DF843
:104CB00017000820ADF8140003208DF8160005A990
:104CC0001448FDF72FF80C20ADF80E0001940020D9
:104CD000ADF80800ADF80A00ADF80C00ADF8100012
:104CE00001A90D48FEF792FE0420FDF706FBFFF731
:104CF00067FF012240F224410748FEF761FE0121CF
:104D00000548FEF711FE40210348FEF7F5FD06B009
:104D100010BD0000000801400044004010B5002113
:104D20000648FCF701FE40F23E310448FCF7EBFE7A
:104D300001210248FCF7F8FD10BD00006C000240A4
:104D400010B500210648FCF7EFFD0648018804482D
:104D5000FCF7D9FE01210248FCF7E6FD10BD00007A
:104D6000800002406401002010B500290AD00878B4
:104D7000002807D005487844FBF704FF002801D03D
:104D8000002010BD0248784410BD00001A17000032
:104D90001217000000000000C60FC900101F92018A
:104DA000622D5B02403A24032D45ED03AF4DB6045E
:104DB00048537F057E554806D3531107CC4DDA077B
:104DC000EE42A308BB326C09B81C350A6900FE0A22
:104DD00053DDC60BF9B28F0CDF80580D8946210ECA
:104DE0007D03EA0E3DB7B20F4E617B1035014411D1
:104DF00075960C129320D512139F9D13791166148A
:104E00004A772E150BD0F6153E1BBF166A5887172A
:104E100013874F18BCA61719EBB6DF1924B7A71ACA
:104E2000ECA66F1BC885371C3B53FF1CCC0EC71D5F
:104E3000FEB78E1E574E561F5BD11D208F40E520BA
:104E4000799BAC219EE1732281123B23AA2D02247F
:104E50009C32C924DD209025F3F7562662B71D2722
:104E6000B05EE42762EDAA28FF6271290BBF372AE2
:104E70000D01FE2A8928C42B06358A2C0A26502DBE
:104E80001AFB152EBDB3DB2E784FA12FD1CD663086
:104E9000502E2C317970F131D393B632E6977B33B3
:104EA000367C40344B400535ACE3C935DE658E3683
:104EB0006AC65237D5041738A720DB3866199F39E0
:104EC0009AEE623ACB9F263B7E2CEA3B3C94AD3C6B
:104ED0008CD6703DF6F2333E01E9F63E36B8B93F66
:104EE0001B607C4039E03E41183801423F67C342B5
:104EF000386D85438B494744BFFB08455E83CA45EF
:104F0000F0DF8B46FD104D470F160E48AFEECE4832
:104F1000659A8F49BB18504A3A69104B6C8BD04B3D
:104F2000D97E904C0C43504D8DD70F4EE83BCF4E61
:104F3000A66F8E4F50724D5072430C5195E2CA517C
:104F4000444F89520A894753708F05540362C354F2
:104F50004C008155D7693E562E9EFB56DE9CB857B5
:104F60007265755875F731597352EE59F775AA5A2B
:104F70008E61665BC414225C258FDD5C3DD0985D3C
:104F800098D7535EC4A40E5F4E37C95FC18E83604D
:104F9000ACAA3D619B8AF7611B2EB162BB946A6328
:104FA00008BE23648FA9DC64DF56956585C54D6610
:104FB00010F505670FE5BD670F9575689F042D69AE
:104FC0004F33E469AE209B6A49CC516BB235086C13
:104FD000775CBE6C2840746D54E0296E8C3CDF6EAB
:104FE0006054946F602749701DB5FD7026FDB17146
:104FF0000EFF657265BA1973BC2ECD73A45B807405
:10500000AF4033756EDDE57574319876523C4A7762
:105010009BFDFB77E074AD78B5A15E79AC830F7A28
:10502000581AC07A4C65707B1B64207C5916D07C62
:10503000997B7F7D70932E7E715DDD7E30D98B7F75
:1050400041063A803AE4E780AF72958135B14282F9
:10505000629FEF82C93C9C8302894884A183F484C7
:105060003C2CA0856B824B86C285F686D935A187FC
:1050700047924B88A19AF5887F4E9F897AAD488ADE
:1050800027B7F18A1F6B9A8BFAC8428C50D0EA8CF2
:10509000B980928DCDD9398E27DBE08E5E84878FE3
:1050A0000CD52D90CACCD390316B7991DDAF1E9287
:1050B000669AC392672A68937A5F0C943B39B094DE
:1050C00044B7539530D9F6959A9E99961F073C9709
:1050D0005A12DE97E7BF7F98620F21996800C29944
:1050E0009692629A88C5029BDC98A29B2F0C429CE8
:1050F0001F1FE19C49D17F9D4C221E9EC611BC9E64
:10510000569F599F9ACAF69F329393A0BCF82FA13D
:10511000D9FACBA1289967A249D302A3DDA89DA300
:10512000831938A4DD24D2A48BCA6BA52F0A05A647
:105130006BE39DA6DF5536A72E61CEA7FB0466A8BC
:10514000E740FDA8951494A9A97F2AAAC581C0AA01
:105150008D1A56ABA449EBABB00E80AC536914ADBD
:105160003259A8ADF3DD3BAE3AF7CEAEACA461AF99
:10517000EFE5F3AFA9BA85B07F2217B1191DA8B129
:105180001CAA38B230C9C8B2FB7958B325BCE7B302
:10519000558F76B434F304B569E792B59E6B20B6AB
:1051A0007A7FADB6A7223AB7CE54C6B7991552B892
:1051B000B064DDB8BF4168B970ACF2B96DA47CBA17
:1051C000622906BBF83A8FBBDDD817BCBA02A0BC77
:1051D0003EB827BD13F9AEBDE7C435BE661BBCBEE5
:1051E0003EFC41BF1B67C7BFAB5B4CC09ED9D0C064
:1051F000A0E054C16070D8C18D885BC2D728DEC2E0
:10520000ED5060C37E00E2C33A3763C4D2F4E3C416
:10521000F73864C55903E4C5A95363C69929E2C6A2
:10522000DA8460C71F65DEC71BCA5BC87FB3D8C8F6
:10523000FE2055C94D12D1C91D874CCA247FC7CA4B
:1052400016FA41CBA6F7BBCB8A7735CC7779AECCB3
:1052500021FD26CD40029FCD888816CEAF8F8DCE02
:105260006E1704CF791F7ACF8AA7EFCF56AF64D0DD
:105270009636D9D0023D4DD153C2C0D141C633D2AA
:105280008548A6D2D84818D3F5C689D395C2FAD393
:10529000733B6BD44831DBD4D1A34AD5C992B9D57D
:1052A000EAFD27D6F1E495D69A4703D7A22570D711
:1052B000C57EDCD7C15248D852A1B3D8386A1ED9AE
:1052C00030AD88D9F869F2D94FA05BDAF54FC4DA6E
:1052D000A8782CDB291A94DB3734FBDB94C661DC1D
:1052E000FFD0C7DC3A532DDD064D92DD25BEF6DD3D
:1052F00058A65ADE6305BEDE09DB20DF0B2783DFFD
:105300002DE9E4DF342146E0E2CEA6E0FDF106E13E
:105310004A8A66E18C97C5E18A1924E2091082E283
:10532000D07ADFE2A4593CE34DAC98E39172F4E308
:1053300038AC4FE40A59AAE4CE7804E54D0B5EE59B
:105340005010B7E5A0870FE6067167E64CCCBEE6C5
:105350003D9915E7A2D76BE74687C1E7F6A716E8A0
:105360007B396BE8A23BBFE837AE12E9079165E9EC
:10537000DEE3B7E98AA609EAD9D85AEA977AABEA0E
:10538000948BFBEA9E0B4BEB84FA99EB1658E8EBF7
:10539000222436EC7A5E83ECEC06D0EC4B1D1CED3F
:1053A00067A167ED1293B2ED1DF2FCED5ABE46EE19
:1053B0009CF78FEEB69DD8EE7BB020EFBF2F68EF45
:1053C000551BAFEF1173F5EFC9363BF0516680F016
:1053D0007F01C5F0280809F1227A4CF144578FF17A
:1053E000649FD1F1595213F2FC6F54F224F894F2F5
:1053F000A8EAD4F2624714F32B0E53F3DB3E91F389
:105400004DD9CEF35ADD0BF4DD4A48F4B12184F4D2
:10541000B061BFF4B60AFAF49F1C34F547976DF5F6
:105420008B7AA6F547C6DEF5597A16F69E964DF6A6
:10543000F51A84F63B07BAF6505BEFF6131724F71C
:10544000633A58F71FC58BF729B7BEF76010F1F71D
:10545000A6D022F8DDF753F8E48584F8A07AB4F8F2
:10546000F1D5E3F8BC9712F9E2BF40F9484E6EF966
:10547000D2429BF9639DC7F9E15DF3F930841EFACE
:10548000361049FAD80173FAFD589CFA8C15C5FA02
:105490006A37EDFA80BE14FBB4AA3BFBF0FB61FB5C
:1054A0001AB287FB1DCDACFBE14CD1FB4F31F5FBB4
:1054B000527A18FCD4273BFCBE395DFCFDAF7EFC64
:1054C0007C8A9FFC26C9BFFCE86BDFFCAD72FEFC4A
:1054D00064DD1CFDF8AB3AFD58DE57FD727474FDB7
:1054E000346E90FD8DCBABFD6B8CC6FDBFB0E0FD87
:1054F0007838FAFD872313FEDC712BFE682343FE08
:105500001D385AFEEBAF70FEC78A86FEA1C89BFE0F
:105510006D69B0FE1F6DC4FEA9D3D7FE009DEAFEE3
:1055200018C9FCFEE6570EFF5F491FFF799D2FFF4C
:105530002A543FFF686D4EFF2AE95CFF66C76AFF89
:10554000140878FF2CAB84FFA7B090FF7C189CFF59
:10555000A6E2A6FF1C0FB1FFD99DBAFFD78EC3FFED
:1055600010E2CBFF8097D3FF21AFDAFFF028E1FFF5
:10557000E704E7FF0443ECFF44E3F0FFA2E5F4FF98
:105580001E4AF8FFB510FBFF6539FDFF2CC4FEFF76
:105590000BB1FFFFFFFFFFFF10B591EA030F48BFFC
:1055A00083F0004300F15883841A71EB030C05D299
:1055B000121943EB0C03001B61EB0C01DFF824E133
:1055C0004FEA1154A4EB135C1EEA430F18BF9EEA86
:1055D000445F73D023EA0E03DCF1200E21EA04516C
:1055E00043F4801332D322FA0CFE10EB0E0023FAA0
:1055F0000CFE41EB0E01CCF1200E03FA0EFE10EB77
:105600000E0051F10001B1F5801FCCF1200E32D215
:1056100001EB045112FA0EF2BDE8104058BF70477A
:10562000401C38BF5FEA420218BF7047002814BF11
:1056300020F0010041F100014FEA410313F5001F82
:1056400038BF7047A1F1C04100F0F8BA012A43EB1E
:105650000302ACF1200CDCF11F0E32BF4FF0000E44
:1056600023FA0CF310EB030041EB0451B4EB115F90
:10567000D0D0A1EB045101F5801149085FEA300058
:1056800001EB04510ED350F1000038BF12FA0EFEA8
:1056900008D1BDE81040C9E7401C38BF5FEA4202AC
:1056A000CAD1C3E7BDE810404FEA410313F5001F1C
:1056B00038BF7047A1F1C04100F0C0BA9EEA445F14
:1056C00008D011EA5E0FBDE8104004BF01F00041B0
:1056D00000207047BDE8104070B500F061FA00BFCF
:1056E00064FBBE3E0000E0FF2DE9C04130B4DFF8AE
:1056F000A0C23CEA111418BF3CEA131400F0EC807D
:1057000081EA03051CEA111444EAD57418BF1CEAA7
:10571000131500F0C780A4EB05044FF0004545EADF
:10572000C12145EAC32341EA505143EA525304F1EF
:105730007F74994204F500344FEAC0204FEAC22238
:1057400008BF904200F09C804FEA13650FF24016AC
:10575000765D4FEA134506FB05F7C7F1807706FB38
:1057600007F74FEAD737A7FB03687642C8F58038BA
:10577000A7FB06CE38BFA8F1010807FB08E64FF0EB
:10578000000EA6FB028CE6FB03CEDCF1000CCEF192
:10579000004E38BFAEF1010EA6FB0C584FF00007CB
:1057A0004FF00005E6FB0E87A1FB08C6A0FB07CE65
:1057B00016EB0E0645F10005E1FB076515F1E04E1D
:1057C0007EBFA4F580345FEA46066D4116F180077E
:1057D00045F100054FEA17274FEA066647EA0567D5
:1057E000A6F1DE46B6F1805F4FEA15251FD938468F
:1057F00024F0010C05EBC471BCF1FE6F01EB0C1140
:1058000002D8F0BCBDE8008124425CBF01F5801ED7
:105810009EEAC47F02D4F0BCBDE80081244238D4A3
:10582000F0BCA1F1C041BDE8004100F007BA4FEA69
:10583000D22242EA43524FEAD323A7FB02864FEA21
:10584000D02040EA415007FB03661EEA0E0F4FEAE4
:10585000D12105FB026658BFA6EB0056B6EB0056F9
:105860004FEA520E4EEAC37E18EB0E0E56EB530E65
:10587000BDD518EB02085E417F1C55F10005B6E767
:105880004FF480154FF000074FF000064FF000086E
:10589000ADE7F0BC4FF0000001F1C04101F0004164
:1058A000BDE8008111EA0C1F0CEA131500D00CE0D2
:1058B00013EA0C1F00F025804FF00000F0BC81EAD5
:1058C000030101F00041BDE80081F0BCBDE80041EA
:1058D00081EA030100F0B2B9F0BCBDE8004170B547
:1058E00000F05EF9097EFC3E00F007B881EA030192
:1058F0004FF0000001F00041704781EA030100F021
:105900009DB9F0BCBDE800414FF00000214970474F
:10591000FFFDFBF9F7F5F4F2F0EEEDEBE9E8E6E474
:10592000E3E1E0DEDDDBDAD8D7D5D4D3D1D0CFCDFB
:10593000CCCBCAC8C7C6C5C4C2C1C0BFBEBDBCBB34
:10594000BAB9B8B7B6B5B4B3B2B1B0AFAEADACAB2F
:10595000AAA9A8A8A7A6A5A4A3A3A2A1A09F9F9E09
:105960009D9C9C9B9A9999989797969595949393BB
:10597000929191908F8F8E8E8D8C8C8B8B8A898952
:1059800088888787868585848483838282818180D5
:105990000000FF070000F87F4FEA41034FEA53532E
:1059A000A3F58063D3F11E03C8BFD3F1210C0CDD36
:1059B0004FF0004242EAC12242EA505232FA03FC5E
:1059C0008CEAE17CACEBE1707047102BC4BF002087
:1059D000704703F5787CBCF1FF3F04D06FF00042C4
:1059E00082EA2100704770B500F0DAF8499224800D
:1059F00000207047F2E710F0004248BF4042B0FA82
:105A000080F310FA03F10AD0C3F11D0303F580639C
:105A10004FEA415002EB035202EBD12170474FF0A5
:105A200000007047B0FA80F310FA03F10AD0C3F116
:105A30001D0303F580634FEA41504FEA035202EB26
:105A4000D12170474FF0000070470000DFF848C1D7
:105A500070B51CEA111E1EBF1CEA13159EEA0C0F3E
:105A600095EA0C0F00F06F8081EA030423EA4C13DF
:105A70004EEAD47E21EA4C1141F4801143F48013A4
:105A8000AE44A1FB024CA0FB0365AEF17F7E36194C
:105A900055EB0C05A1FB034C4CF10003A0FB021CD1
:105AA00016EB0C06654153F10003094218BF46F09E
:105AB000010613F4007F0BD14FEA03314FEA0530A2
:105AC000340341EA155140EA16506FF003020AE030
:105AD0004FEAC3214FEAC520F40241EA555140EA9A
